:04000000FEEF3FF0E0
:100900000000046E070E016488EF04F08AEF04F023
:1009100044EF05F0000E53EF05F001C002F0010EA8
:10092000036E022A96EF04F0D8900336022E94EF5D
:1009300004F0035087140009D8A4A1EF04F0A3EF3A
:1009400004F0B6EF04F001C002F082CF03F0022AF7
:10095000ACEF04F0D8900332022EAAEF04F0010E9F
:1009600003160350056E066AC7EF04F001C002F0DB
:100970008CCF03F0022ABFEF04F0D8900332022E8E
:10098000BDEF04F0010E03160350056E066A055014
:1009900053EF05F001C002F0010E036E022AD3EFFF
:1009A00004F0D8900336022ED1EF04F003508814DF
:1009B0000009D8A4DEEF04F0E0EF04F0F3EF04F058
:1009C00001C002F083CF03F0022AE9EF04F0D890CF
:1009D0000332022EE7EF04F0010E03160350076EF8
:1009E000086A04EF05F001C002F08DCF03F0022A7F
:1009F000FCEF04F0D8900332022EFAEF04F0010E5F
:100A000003160350076E086A075053EF05F001C044
:100A100002F0010E036E022A10EF05F0D8900336A3
:100A2000022E0EEF05F0035089140009D8A41BEF25
:100A300005F01DEF05F030EF05F001C002F084CFA6
:100A400003F0022A26EF05F0D8900332022E24EF9D
:100A500005F0010E03160350096E0A6A41EF05F016
:100A600001C002F08ECF03F0022A39EF05F0D890D2
:100A70000332022E37EF05F0010E03160350096E04
:100A80000A6A095053EF05F00450000AD8B48DEFFC
:100A900004F0010AD8B4CAEF04F0030AD8B407EF8F
:100AA00005F08AEF04F01200106E070E0B645BEF86
:100AB00005F05DEF05F05FEF05F00BEF06F0F29E3D
:100AC000FBEF05F00C50D8A468EF05F06AEF05F0D5
:100AD0007FEF05F00BC00DF0010E0E6E0D2A73EFC7
:100AE00005F0D8900E360D2E71EF05F00E50FF0A6E
:100AF00082140F6E0F50116E126A91EF05F00BC049
:100B00000DF0010E0E6E0D2A88EF05F0D8900E360E
:100B10000D2E86EF05F00E5082100F6E0F50116EE5
:100B2000126A11C082FF0AEF06F00C50D8A49BEFA6
:100B300005F09DEF05F0B2EF05F00BC00DF0010ED2
:100B40000E6E0D2AA6EF05F0D8900E360D2EA4EFEE
:100B500005F00E50FF0A83140F6E0F50136E146AC7
:100B6000C4EF05F00BC00DF0010E0E6E0D2ABBEFA9
:100B700005F0D8900E360D2EB9EF05F00E5083100B
:100B80000F6E0F50136E146A13C083FF0AEF06F046
:100B90000C50D8A4CEEF05F0D0EF05F0E5EF05F04E
:100BA0000BC00DF0010E0E6E0D2AD9EF05F0D89096
:100BB0000E360D2ED7EF05F00E50FF0A84140F6E7F
:100BC0000F50156E166AF7EF05F00BC00DF0010E11
:100BD0000E6E0D2AEEEF05F0D8900E360D2EECEFCE
:100BE00005F00E5084100F6E0F50156E166A15C06A
:100BF00084FF0AEF06F01050000AD8B462EF05F047
:100C0000010AD8B495EF05F0030AD8B4C8EF05F08F
:100C10000AEF06F0F28E1200066E070E016413EF63
:100C200006F015EF06F0B0EF06F0BFEF06F0025049
:100C3000D8A41DEF06F01FEF06F034EF06F001C058
:100C400003F0010E046E032A28EF06F0D890043654
:100C5000032E26EF06F00450FF0A8714056E055098
:100C6000076E086A46EF06F001C003F0010E046E3D
:100C7000032A3DEF06F0D8900436032E3BEF06F032
:100C800004508710056E0550076E086A07C087FF7D
:100C9000BFEF06F00250D8A450EF06F052EF06F076
:100CA00067EF06F001C003F0010E046E032A5BEF4C
:100CB00006F0D8900436032E59EF06F00450FF0AD0
:100CC0008814056E0550096E0A6A79EF06F001C0B6
:100CD00003F0010E046E032A70EF06F0D89004367C
:100CE000032E6EEF06F004508810056E0550096E55
:100CF0000A6A09C088FFBFEF06F00250D8A483EF4C
:100D000006F085EF06F09AEF06F001C003F0010E41
:100D1000046E032A8EEF06F0D8900436032E8CEF73
:100D200006F00450FF0A8914056E05500B6E0C6A1C
:100D3000ACEF06F001C003F0010E046E032AA3EF2E
:100D400006F0D8900436032EA1EF06F00450891067
:100D5000056E05500B6E0C6A0BC089FFBFEF06F0E5
:100D60000650000AD8B417EF06F0010AD8B44AEFCB
:100D700006F0030AD8B47DEF06F0BFEF06F01200CC
:100D8000E1EF06F0000E046E000E036EF40E035C3D
:100D9000010E0458D8A0CFEF06F0D1EF06F0D3EF44
:100DA00006F0C0EF06F00000034A042AF40E035CCC
:100DB000010E0458D8A0DFEF06F0E1EF06F0D3EF04
:100DC00006F00106D8A00206012806E10228D8A4F0
:100DD000ECEF06F0EEEF06F0C2EF06F0120017ECB3
:100DE00007F0000E016E000E026E000E0CEC06F015
:100DF000000E0B6E000E016E000E81EC04F0000977
:100E0000D8B405EF07F008EF07F0010E09EF07F07F
:100E1000000E0C6E000E54EC05F0010E026EF40E86
:100E2000016EC0EC06F0F8EF06F0FEEF3FF0876AC7
:100E30008868896A826A836A846A1200000EF86E82
:060E40000001EFEF06F0D7
:047FFC001EEF07F07D
:020000040030CA
:08000000FAFF7FFF9FFFFFDF05
:00000001FF
