:04000000FEEF3FF0E0
:100900000000066E070E016488EF04F08AEF04F021
:1009100025EF05F034EF05F00250D8A492EF04F073
:1009200094EF04F0A9EF04F001C003F0010E046E8F
:10093000032A9DEF04F0D8900436032E9BEF04F0B9
:100940000450FF0A8714056E0550076E086ABBEF56
:1009500004F001C003F0010E046E032AB2EF04F0AC
:10096000D8900436032EB0EF04F004508710056EC3
:100970000550076E086A07C087FF34EF05F0025084
:10098000D8A4C5EF04F0C7EF04F0DCEF04F001C019
:1009900003F0010E046E032AD0EF04F0D890043661
:1009A000032ECEEF04F00450FF0A8814056E0550A4
:1009B000096E0A6AEEEF04F001C003F0010E046E46
:1009C000032AE5EF04F0D8900436032EE3EF04F099
:1009D00004508810056E0550096E0A6A09C088FF28
:1009E00034EF05F00250D8A4F8EF04F0FAEF04F069
:1009F0000FEF05F001C003F0010E046E032A03EFB0
:100A000005F0D8900436032E01EF05F00450FF0ADC
:100A10008914056E05500B6E0C6A21EF05F001C0BC
:100A200003F0010E046E032A18EF05F0D890043687
:100A3000032E16EF05F004508910056E05500B6E5D
:100A40000C6A0BC089FF34EF05F00650000AD8B4D9
:100A50008CEF04F0010AD8B4BFEF04F0030AD8B455
:100A6000F2EF04F034EF05F01200046E68EF05F0C9
:100A700001C002F0010E036E022A41EF05F0D8908A
:100A80000336022E3FEF05F00350821A77EF05F090
:100A900001C002F0010E036E022A51EF05F0D8905A
:100AA0000336022E4FEF05F00350831A77EF05F05F
:100AB00001C002F0010E036E022A61EF05F0D8902A
:100AC0000336022E5FEF05F00350841A77EF05F02E
:100AD0000450000AD8B438EF05F0010AD8B448EF42
:100AE00005F0030AD8B458EF05F077EF05F01200CF
:100AF000000E046E000E036E96EF05F0000E066EFB
:100B0000000E056EF40E055C010E0658D8A08BEFA2
:100B100005F08DEF05F08FEF05F094EF05F0000084
:100B2000054A062A82EF05F0034A042A0150035CB5
:100B300002500458D8A09FEF05F0A1EF05F07EEF1A
:100B400005F01200BAEC05F0000E016E000E026E08
:100B5000000E81EC04F0000E016E000E35EC05F085
:100B6000010E026EF40E016E78EC05F0ABEF05F0AD
:100B7000FEEF3FF0876A8868896A826A836A846ABE
:0C0B80001200000EF86E0001A2EF05F05C
:047FFC00C1EF05F0DC
:020000040030CA
:08000000FAFF7FFF9FFFFFDF05
:00000001FF
